{
  "contractName": "UserAllocation",
  "abi": [
    {
      "anonymous": false,
      "inputs": [
        {
          "indexed": false,
          "internalType": "uint256",
          "name": "userId",
          "type": "uint256"
        },
        {
          "indexed": false,
          "internalType": "uint256",
          "name": "bandwidth",
          "type": "uint256"
        }
      ],
      "name": "AllocationAdded",
      "type": "event"
    },
    {
      "inputs": [
        {
          "internalType": "uint256",
          "name": "",
          "type": "uint256"
        }
      ],
      "name": "allocations",
      "outputs": [
        {
          "internalType": "uint256",
          "name": "userId",
          "type": "uint256"
        },
        {
          "internalType": "uint256",
          "name": "bandwidth",
          "type": "uint256"
        }
      ],
      "stateMutability": "view",
      "type": "function",
      "constant": true
    },
    {
      "inputs": [
        {
          "internalType": "uint256",
          "name": "userId",
          "type": "uint256"
        },
        {
          "internalType": "uint256",
          "name": "bandwidth",
          "type": "uint256"
        }
      ],
      "name": "addAllocation",
      "outputs": [],
      "stateMutability": "nonpayable",
      "type": "function"
    },
    {
      "inputs": [],
      "name": "getAllocations",
      "outputs": [
        {
          "components": [
            {
              "internalType": "uint256",
              "name": "userId",
              "type": "uint256"
            },
            {
              "internalType": "uint256",
              "name": "bandwidth",
              "type": "uint256"
            }
          ],
          "internalType": "struct UserAllocation.Allocation[]",
          "name": "",
          "type": "tuple[]"
        }
      ],
      "stateMutability": "view",
      "type": "function",
      "constant": true
    }
  ],
  "bytecode": "0x608060405234801561001057600080fd5b50610403806100206000396000f3fe608060405234801561001057600080fd5b50600436106100415760003560e01c80630a2642bf1461004657806365ed6e23146100775780639ac0d2c014610095575b600080fd5b610060600480360381019061005b9190610200565b6100b1565b60405161006e92919061034a565b60405180910390f35b61007f6100e5565b60405161008c9190610328565b60405180910390f35b6100af60048036038101906100aa9190610229565b610158565b005b600081815481106100c157600080fd5b90600052602060002090600202016000915090508060000154908060010154905082565b60606000805480602002602001604051908101604052809291908181526020016000905b8282101561014f57838290600052602060002090600202016040518060400160405290816000820154815260200160018201548152505081526020019060010190610109565b50505050905090565b60006040518060400160405280848152602001838152509080600181540180825580915050600190039060005260206000209060020201600090919091909150600082015181600001556020820151816001015550507f843968ebd6bfde464d70642d9ffebf6f386e916ee0c54177032a608b937a8b3d82826040516101df92919061034a565b60405180910390a15050565b6000813590506101fa816103b6565b92915050565b60006020828403121561021257600080fd5b6000610220848285016101eb565b91505092915050565b6000806040838503121561023c57600080fd5b600061024a858286016101eb565b925050602061025b858286016101eb565b9150509250929050565b600061027183836102db565b60408301905092915050565b600061028882610383565b610292818561039b565b935061029d83610373565b8060005b838110156102ce5781516102b58882610265565b97506102c08361038e565b9250506001810190506102a1565b5085935050505092915050565b6040820160008201516102f1600085018261030a565b506020820151610304602085018261030a565b50505050565b610313816103ac565b82525050565b610322816103ac565b82525050565b60006020820190508181036000830152610342818461027d565b905092915050565b600060408201905061035f6000830185610319565b61036c6020830184610319565b9392505050565b6000819050602082019050919050565b600081519050919050565b6000602082019050919050565b600082825260208201905092915050565b6000819050919050565b6103bf816103ac565b81146103ca57600080fd5b5056fea2646970667358221220ded0157df0e3369a84d2460289bc91c2480d081382f70ffffc7820d51584b09964736f6c63430008000033",
  "immutableReferences": {},
  "source": "// SPDX-License-Identifier: MIT\r\npragma solidity ^0.8.0;\r\n\r\ncontract UserAllocation {\r\n    struct Allocation {\r\n        uint256 userId;\r\n        uint256 bandwidth;\r\n    }\r\n\r\n    Allocation[] public allocations;\r\n    event AllocationAdded(uint256 userId, uint256 bandwidth);\r\n\r\n    function addAllocation(uint256 userId, uint256 bandwidth) public {\r\n        allocations.push(Allocation(userId, bandwidth));\r\n        emit AllocationAdded(userId, bandwidth);\r\n    }\r\n\r\n    function getAllocations() public view returns (Allocation[] memory) {\r\n        return allocations;\r\n    }\r\n}\r\n",
  "sourcePath": "C:\\Users\\prith\\OneDrive\\Desktop\\5G_MEC-main\\contracts\\UserAllocation.sol",
  "compiler": {
    "name": "solc",
    "version": "0.8.0+commit.c7dfd78e.Emscripten.clang"
  },
  "schemaVersion": "3.4.16",
  "updatedAt": "2025-01-21T04:22:20.137Z",
  "networkType": "ethereum",
  "devdoc": {
    "kind": "dev",
    "methods": {},
    "version": 1
  },
  "userdoc": {
    "kind": "user",
    "methods": {},
    "version": 1
  },
  "db": {
    "callBytecode": {
      "id": "0xbbcba52ca61da1e56d32c681d7247232b7a1c87c20c04f7f2e99d9a623d39f5e"
    },
    "createBytecode": {
      "id": "0xf04ef8c75e56fab77d986be2c159d8f6cdbb7b43b0ef6d542067615dd9cf2737"
    },
    "contract": {
      "id": "0x94416ac1a1a017eb4915f92bc24c26f9ab0e2b67cdd3cd3118777336513279c7"
    }
  }
}